:020000040040BA
:10000000980A4020C9024000C5024000C5024000D5
:10001000C5024000C5024000C502400000000000CB
:10002000000000000000000000000000C5024000C9
:10003000C502400000000000C5024000C5024000AB
:10004000C5024000C5024000C5024000C502400094
:10005000C5024000C5024000C5024000C502400084
:10006000C502400000000000C5024000C50240007B
:10007000C5024000C5024000C5024000C502400064
:10008000C5024000C5024000C5024000C502400054
:10009000C5024000C5024000C5024000C502400044
:1000A000C5024000C5024000C5024000C502400034
:1000B000C5024000C5024000C5024000C502400024
:1000C000C5024000C5024000C5024000C502400014
:1000D000C5024000C5024000C5024000C502400004
:1000E000C5024000C5024000C5024000C5024000F4
:1000F000C5024000C5024000C5024000C5024000E4
:10010000C5024000C5024000C5024000C5024000D3
:10011000C5024000000000000000000000000000D8
:10012000C5024000C5024000C5024000C5024000B3
:10013000C5024000C5024000C5024000C5024000A3
:10014000C5024000C5024000C5024000C502400093
:10015000C5024000C5024000C5024000C502400083
:10016000C5024000C502400010B5054C237833B9E4
:10017000044B13B10448AFF300800123237010BD7A
:100180002C044020000000004407400008B5034B49
:100190001BB103490348AFF3008008BD0000000015
:1001A0003004402044074000EFF31083036072B630
:1001B000BFF35F8F7047BFF35F8F036883F31088CF
:1001C00070470000054B10B51C68054B9847054B60
:1001D00001462046BDE81040184700BF48044020B3
:1001E000E9014000F5014000014B5843704700BF52
:1001F000E09304000139FDD87047000007B50E4BAD
:1002000001A898470D4AD2F8883043F47003C2F829
:100210008830BFF34F8FBFF36F8F094B01A898470A
:10022000084A136823F4706343F4A0631360064B19
:10023000984703B05DF804FBA901400000ED00E021
:10024000B7014000000C0E404D0240001A4B1B4A03
:10025000196A21F002010A431A629A6ED107FCD58D
:100260001A6A42F09B7242F480321A629A6A22F051
:10027000FF6222F4E0229A62114A9A629A6E920711
:10028000FCD51A6B22F070021A639A6E1007FCD527
:100290001A6B22F4407242F480721A639A6E11074C
:1002A000FCD51A6B22F0030242F002021A639A6E26
:1002B0001207FCD5704700BF00060E40013E370014
:1002C000013F1820FEE7000008B50F4A0F4B9A4285
:1002D00003D0043A0E498B420ED30E4B00210E4A36
:1002E00093420ED30D4B0E4A23F07F0393600D4BC8
:1002F00098470D4B9847FEE752F8040F43F8040B5C
:10030000E9E743F8041BEBE7440740000000402006
:100310002C0440202C044020940440200000400085
:1003200000ED00E07105400051044000F8B50422E2
:100330000E460E4B48B95A630D4C00230D4F0E4D1F
:1003400023602368B34202DBF8BD1A63F4E76068F8
:1003500080B2B847AB6B03F40022DB4303F4002305
:100360002B636A63236801332360EAE7000E0E40C3
:100370004C044020C501400000120E40F8B50E4666
:100380000E4D4FF4006340B96B630D4C00230D4FCD
:1003900023602368B34202DBF8BD2B63F5E7606896
:1003A00080B2B847AB6B03F00062DB4303F000633D
:1003B0002B636A63236801332360EAE700140E406D
:1003C0004C044020C5014000F8B50E460E4D4023B8
:1003D00040B96B630D4C00230D4F23602368B3427B
:1003E00002DBF8BD2B63F5E7606880B2B847AB6B02
:1003F00003F02002DB4303F020032B636A632368CE
:1004000001332360EAE700BF000E0E404C04402099
:10041000C501400003461046094A012B10B44FF0B5
:100420000004146005D0022B05D033B9054B10BC75
:100430001847054BFBE7054BF9E710BC704700BFB9
:100440004C0440202D0340007D034000C9034000C0
:1004500070B51C4C92B01C4B98476D460FCC0FC525
:1004600004F1080694E80300203485E803000FCE69
:1004700006AD0FC596E8030085E803000FCC0CAD70
:100480000FC594E803006423104C85E80300104D69
:100490006360A368A368052BFBDCA36812A8A168AE
:1004A000A26800EB830300EB810100EB820253F8AA
:1004B000480C51F8181C52F8302CA847A368013397
:1004C000A360E7E7D4064000690540004C044020E3
:1004D0001504400008B5204B9847204B9A695005F9
:1004E00002D44FF480621A619A69D10402D44FF4A5
:1004F00080521A619A69D20302D44FF480321A6191
:10050000174A536843F4004353600422154B5A635F
:100510001A611A6020225A631A611A6040225A63D3
:100520001A611A604FF40022C3F83424C3F810246F
:10053000C3F800244FF40062C3F83426C3F8102631
:10054000C3F800264FF00062C3F83426C3F8102623
:10055000C3F8002608BD00BFFD01400000060E40A4
:1005600050180E40000E0E40004B1847D5044000B6
:1005700070B50D4E0D4D761BB61006D0002401341B
:1005800055F8043B9847A642F9D1094E094D761B10
:1005900000F0C6F8B61006D00024013455F8043B2C
:1005A0009847A642F9D170BD2C0740002C074000A7
:1005B000340740002C074000024B13B1024800F002
:1005C00005B8704700000000D9054000002301462F
:1005D0001A46184600F01EB838B50A4C0A4D641B7E
:1005E000A4100AD004F18043013B05EB8305013CD4
:1005F00055F804399847002CF9D1BDE8384000F08F
:1006000099B800BF4407400040074000704700BF52
:10061000704700BF2DE9F8432B4D064628689846E1
:100620000F469146FFF7F2FF284B1C68D4F848317B
:10063000002B3DD05A681F2A0DDC02F1010C16BBBD
:100640000232C3F804C0286843F82270FFF7E0FFC5
:100650000020BDE8F8831E4B7BB34FF4C870AFF3A6
:100660000080034648B3D4F848210021C0E90021A6
:100670004FF0010CC4F848010A46C0F88811C0F8D0
:100680008C11002EDCD003EB82010124C1F888908C
:10069000D3F8880194402043022EC3F88801C1F8A2
:1006A0000881CDD1D3F88C110C43C3F88C41C7E736
:1006B00004F5A673C4F84831BCE72868FFF7A8FF23
:1006C0004FF0FF30C5E700BF280440201C07400062
:1006D0000000000000000000010000000200000017
:1006E0000000000001000000020000000100000006
:1006F00001000000010000000000000000000000F8
:10070000000000000A0000000A0000000A000000CB
:100710000A0000000A0000000A000000000040205B
:10072000F8B500BFF8BC08BC9E467047B90540004C
:100730008D014000F8B500BFF8BC08BC9E4670476C
:04074000690140000B
:1007440000000000EC02402054034020BC03402081
:100754000000000000000000000000000000000095
:100764000000000000000000000000000000000085
:100774000000000000000000000000000000000075
:100784000000000000000000000000000000000065
:100794000000000000000000000000000000000055
:1007A4000000000000000000000000000000000045
:1007B4000000000000000000000000000000000035
:1007C4000000000000000000000000000000000025
:1007D4000000000000000000000000000000000015
:1007E4000000000000000000010000000000000004
:1007F4000E33CDAB34126DE6ECDE05000B000000C9
:1008040000000000000000000000000000000000E4
:1008140000000000000000000000000000000000D4
:1008240000000000000000000000000000000000C4
:1008340000000000000000000000000000000000B4
:0C0B6400000000000000000070044020B1
:0400000500400000B7
:00000001FF
