:020000040040BA
:10000000180B4020390540003505400035054000FB
:100010003505400035054000350540000000000072
:100020000000000000000000000000003505400056
:100030003505400000000000350540003505400052
:1000400035054000350540003505400035054000C8
:1000500035054000350540003505400035054000B8
:100060003505400000000000350540003505400022
:100070003505400035054000350540003505400098
:100080003505400035054000350540003505400088
:100090003505400035054000350540001D05400090
:1000A0003505400035054000350540003505400068
:1000B0003505400035054000350540003505400058
:1000C0003505400035054000350540003505400048
:1000D0003505400035054000350540003505400038
:1000E0003505400035054000350540003505400028
:1000F0003505400035054000350540003505400018
:100100003505400035054000350540003505400007
:100110003505400000000000000000000000000065
:1001200035054000350540003505400035054000E7
:1001300035054000350540003505400035054000D7
:1001400035054000350540003505400035054000C7
:1001500035054000350540003505400035054000B7
:10016000350540003505400010B5054C237833B9FE
:10017000044B13B10448AFF300800123237010BD7A
:100180005404402000000000D808400008B5034B8C
:100190001BB103490348AFF3008008BD0000000015
:1001A00058044020D8084000EFF31083036072B673
:1001B000BFF35F8F7047BFF35F8F036883F31088CF
:1001C00070470000F0B505681DB90F4BBDE8F04061
:1001D0001847D1F808C02C460026C2F1010ED4E918
:1001E0000137934295BFDB1973449B1ADB199C4579
:1001F00007D92368264613B93046044BE6E71C4668
:10020000EDE7A542E1D0F7E7430340004B03400090
:100210002DE9F047D0E90464037E05460136DA078C
:1002200006611FD4037E9B071CD400F11407DFF87E
:100230004080DFF84090CCB16368A268F31A934223
:1002400014D33846C047237C012B04D16660324664
:1002500021463846C847D5F814A02046E368984799
:100260005446E8E72B7E43F002032B76BDE8F08787
:1002700053034000C501400010B5044B04469847A5
:100280000020034B2061236010BD00BF49044000E3
:100290001102400038B5064B05469847044620B980
:1002A0002846044B9847204638BD6FF01000FBE706
:1002B000ED044000E5044000F7B5037E00F11406AC
:1002C00004460F4643F0010303763046144B98472B
:1002D000054638B1237E6FF0110003F0FE0323764C
:1002E00003B0F0BD226930460E4B39467A6098471C
:1002F000237E03F0FE032376207E10F00200EFD071
:1003000001A8094B9847237E204603F0FD0323767E
:10031000064B984701A8064B98472846E0E700BFE0
:1003200035034000C5014000A9014000F904400028
:10033000B7014000006800B970478842FAD1012037
:10034000704703680B600160704703680B600160D1
:10035000704703680BB11A680260184670470000C6
:1003600043B2002B09DB01225B0900F01F00403380
:1003700002FA00F0014A42F82300704700E100E071
:1003800007B50E4B01A898470D4AD2F8883043F4C0
:100390007003C2F88830BFF34F8FBFF36F8F094BE4
:1003A00001A89847084A136823F4706343F4A063D4
:1003B0001360064B984703B05DF804FBA9014000A9
:1003C00000ED00E0B7014000000C0E40D1034000FA
:1003D0001A4B1B4A196A21F002010A431A629A6EEB
:1003E000D107FCD51A6A42F09B7242F480321A623D
:1003F0009A6A22F0FF6222F4E0229A62114A9A621B
:100400009A6E9207FCD51A6B22F070021A639A6EEC
:100410001007FCD51A6B22F4407242F480721A6302
:100420009A6E1107FCD51A6B22F0030242F0020209
:100430001A639A6E1207FCD5704700BF00060E4083
:10044000013E3700013F1820224B1A6891423ED1ED
:100450009A68C16012F4004F18BF42F414224A6037
:100460005A694A619A698A61DA680A63DA69CA6113
:1004700010224A621A69C1F8D820174A914204BF73
:10048000164A106093F90420002A0DDB510901205F
:1004900002F01F02203100FA02F2114840F8212038
:1004A000BFF34F8FBFF36F8F93F90430002B0CDB3A
:1004B00003F01F015B0901229B008A4003F16043A6
:1004C00003F56143C3F880211A60002070470023C0
:1004D0009B68FFDE0000402000C000407004402008
:1004E00000E100E0C36805221A607047C368186A1B
:1004F000C0F3004070470000054BC1681A68914284
:1005000002D11879034B184700231B79FFDE00BF87
:10051000000040206103400000207047044B186831
:10052000C3681B6ADB0601D503681847704700BF24
:1005300070044020FEE7000008B50F4A0F4B9A42B6
:1005400003D0043A0E498B420ED30E4B00210E4AC3
:1005500093420ED30D4B0E4A23F07F0393600D4B55
:1005600098470D4B9847FEE752F8040F43F8040BE9
:10057000E9E743F8041BEBE7D808400000004020FF
:10058000540440205404402018054020000040003E
:1005900000ED00E04D07400005064000054B03EB71
:1005A0004020836B03EA010221EA030101634263F5
:1005B000704700BF000E0E404FF400210220014B97
:1005C000184700BF9D0540004FF400610320014B18
:1005D000184700BF9D0540004FF480110320014BD8
:1005E000184700BF9D05400004210020004B18471C
:1005F0009D0540004FF480010320014B184700BFC8
:100600009D05400008B51E4B98471E4CC822642328
:100610001D4D2146E2611D4AA36022624FF496728D
:100620001B4B22631B4AE360012362634FF4C872D1
:1006300019486264194A2374A2644FF4FA7284F868
:100640002430A265164A84F8383084F84C3084F897
:100650006030E265A84704F114010F48A84704F18F
:1006600028010D48A84704F13C010B48A84704F1B4
:1006700050010948A84708480A4B9847FEE700BFC1
:100680004507400074044020B9024000F5054000D1
:10069000D9054000E9054000D8044020B9054000D4
:1006A000C9054000950240001E4B10B598471E4AF0
:1006B0009369D90402D44FF4805313611B49042079
:1006C0004B6843F400434B604FF48001184B59636F
:1006D000196119604FF4801159631961196001F1B2
:1006E0008041A1F5F9314863086108604FF40020AA
:1006F000C1F83404C1F81004C1F800044FF40061DB
:1007000059631961196093691B0202D44FF4000305
:100710001361084B984708490246084B0848BDE852
:10072000104018478103400000060E4050180E404C
:1007300000140E401905400000C00040790240003E
:10074000D8044020004B1847A906400070B50D4E54
:100750000D4D761BB61006D00024013455F8043B2D
:100760009847A642F9D1094E094D761B00F0A2F830
:10077000B61006D00024013455F8043B9847A64231
:10078000F9D170BDC0084000C0084000C808400052
:10079000C0084000024B13B1024800F005B8704792
:1007A00000000000B5074000002301461A46184625
:1007B00000F01EB838B50A4C0A4D641BA4100AD0CC
:1007C00004F18043013B05EB8305013C55F80439F6
:1007D0009847002CF9D1BDE8384000F075B800BF4B
:1007E000D8084000D4084000704700BF704700BFE1
:1007F0002DE9F8432B4D0646286898460F4691464A
:10080000FFF7F2FF284B1C68D4F84831002B3DD08D
:100810005A681F2A0DDC02F1010C16BB0232C3F824
:1008200004C0286843F82270FFF7E0FF0020BDE80D
:10083000F8831E4B7BB34FF4C870AFF300800346C0
:1008400048B3D4F848210021C0E900214FF0010C41
:10085000C4F848010A46C0F88811C0F88C11002E6F
:10086000DCD003EB82010124C1F88890D3F8880121
:1008700094402043022EC3F88801C1F80881CDD1ED
:10088000D3F88C110C43C3F88C41C7E704F5A67369
:10089000C4F84831BCE72868FFF7A8FF4FF0FF30E5
:1008A000C5E700BF50044020B00840000000000031
:1008B00028004020F8B500BFF8BC08BC9E46704731
:1008C000950740008D014000F8B500BFF8BC08BC9A
:0808D0009E46704769014000DB
:1008D80000C000401700000001C000000000000038
:1008E800000000009F240000000000003E490000B6
:1008F8000000000000000000000000001403402079
:100908007C034020E40340200000000000000000B9
:1009180000000000000000000000000000000000CF
:1009280000000000000000000000000000000000BF
:1009380000000000000000000000000000000000AF
:10094800000000000000000000000000000000009F
:10095800000000000000000000000000000000008F
:10096800000000000000000000000000000000007F
:10097800000000000000000000000000000000006F
:10098800000000000000000000000000000000005F
:10099800000000000000000000000000000000004F
:1009A80001000000000000000E33CDAB34126DE6EC
:1009B800ECDE05000B000000000000000000000055
:1009C800000000000000000000000000000000001F
:1009D800000000000000000000000000000000000F
:1009E80000000000000000000000000000000000FF
:1009F80000000000000000000000000000000000EF
:040D2800F40440206F
:0400000500400000B7
:00000001FF
