:020000040040BA
:10000000A00A4020CD044000CB044000CB044000B7
:10001000CB044000CB044000CB04400000000000B3
:10002000000000000000000000000000CB044000C1
:10003000CB04400000000000CB044000CB04400093
:10004000CB044000CB044000CB044000CB04400074
:10005000CB044000CB044000CB044000CB04400064
:10006000CB04400000000000CB044000CB04400063
:10007000CB044000CB044000CB044000CB04400044
:10008000CB044000CB044000CB044000CB04400034
:10009000CB044000CB044000CB044000CB04400024
:1000A000CB044000CB044000CB044000CB04400014
:1000B000CB044000CB044000CB044000410340008F
:1000C000CB044000CB044000CB044000CB044000F4
:1000D000CB044000CB044000CB044000CB044000E4
:1000E000CB044000CB044000CB044000CB044000D4
:1000F000CB044000CB044000CB044000CB044000C4
:10010000CB044000CB044000CB044000CB044000B3
:10011000CB044000000000000000000000000000D0
:10012000CB044000CB044000CB044000CB04400093
:10013000CB044000CB044000CB044000CB04400083
:10014000CB044000CB044000CB044000CB04400073
:10015000CB044000CB044000CB044000CB04400063
:10016000CB044000CB04400010B5054C237833B9D4
:10017000044B13B10448AFF300800123237010BD7A
:100180002C044020000000004C08400008B5034B40
:100190001BB103490348AFF3008008BD0000000015
:1001A000300440204C084000EFF31083036072B627
:1001B000BFF35F8F7047BFF35F8F036883F31088CF
:1001C00070470000054B10B51C68054B9847054B60
:1001D00001462046BDE81040184700BF48044020B3
:1001E0004D02400059024000436903B1184770476F
:1001F000836903B11847704710B5044B044698470C
:10020000034B00202360034B636010BD5903400083
:10021000E9014000F101400038B5064B054698471A
:10022000044620B92846044B9847204638BD6FF055
:100230001000FBE7B90440005904400008B5024B28
:100240009847002008BD00BF85044000014B58437B
:10025000704700BFE09304000139FDD870470000EB
:1002600007B50E4B01A898470D4AD2F8883043F4E1
:100270007003C2F88830BFF34F8FBFF36F8F094B05
:1002800001A89847084A136823F4706343F4A063F5
:100290001360064B984703B05DF804FBA9014000CA
:1002A00000ED00E0B7014000000C0E40B10240003C
:1002B0001A4B1B4A196A21F002010A431A629A6E0C
:1002C000D107FCD51A6A42F09B7242F480321A625E
:1002D0009A6A22F0FF6222F4E0229A62114A9A623C
:1002E0009A6E9207FCD51A6B22F070021A639A6E0E
:1002F0001007FCD51A6B22F4407242F480721A6324
:100300009A6E1107FCD51A6B22F0030242F002022A
:100310001A639A6E1207FCD5704700BF00060E40A4
:10032000013E3700013F1820034A044B90420CBFA6
:1003300018460020704700BF00000240A807400098
:10034000044B18680369DB6913B1036803B11847EC
:10035000704700BF4C0440202DE9F0413A4B8046E5
:10036000084698478368C8F8101000220B60C368DD
:10037000C76ACB670369C1F880304369CB6583697D
:100380008B66C369C1F8C030036ACB66436AC1F8A3
:100390002C34836AC1F84C3453B20132BB4231D39E
:1003A000466B002253B20132B3423BD3274B9942F2
:1003B00004BF274BC3F8008090F90430002B0DDBFD
:1003C0005A09012103F01F03203201FA03F32149E6
:1003D00041F82230BFF34F8FBFF36F8F90F9043095
:1003E000002B0CDB03F01F015B0901229B008A40FC
:1003F00003F1604303F56143C3F880211A600020D4
:10040000BDE8F081066B1B01F518F35C6C6801EB2D
:100410004316C6F80042EC68AD68C6F80442C6F858
:100420000C52B9E7876B03EB430307EB830517F81F
:10043000233001EB031713336C681B01AD68C7F859
:100440003841CD50AEE700BF290340000000024014
:100450004C04402000E100E00169094B084670B5FA
:1004600098470125C46A002253B20132A34200D347
:1004700070BD066B1B01F35C05FA03F34B60F3E7F9
:1004800029034000F8B5056917460A4B00242846A1
:100490009847C66AE3B201349E4200D8F8BD026BA9
:1004A0001B01D35C05EB4313C3F80872C3F81012A9
:1004B000F0E700BF290340000369D86810F00F007F
:1004C00018BF0120704700207047FEE708B50F4AAB
:1004D0000F4B9A4203D0043A0E498B420ED30E4B77
:1004E00000210E4A93420ED30D4B0E4A23F07F0398
:1004F00093600D4B98470D4B9847FEE752F8040F59
:1005000043F8040BE9E743F8041BEBE74C08400011
:10051000000040202C0440202C0440209C0440205B
:100520000000400000ED00E04506400031054000BD
:100530002DE9F041104E114B9847114C01226421D6
:100540001048B0460F4FA0470E480F4B9847012563
:100550006420B0472A460A3564213846A047652DF5
:10056000F6D164256420C0472A4664213846A04756
:100570000A3DF7D1EBE700BFC50140003D06400052
:100580003D0240005C04402019024000064B1A6FF7
:1005900022F480021A675A6F22F480025A674FF4DD
:1005A00080025A60704700BF00140E40034B9A69E6
:1005B000002A02DB4FF000421A61704700060E402D
:1005C00010B5064B9847064B9847064B9847064987
:1005D0000246064B0648BDE810401847AD054000EE
:1005E0008D054000C704400000000240F9014000B2
:1005F0005C0440200C4B10B598470C4B9A69D20410
:1006000002D44FF480521A61094A536843F40043FC
:1006100053604FF48072074BBDE810401A631A61B3
:100620001A60054B184700BF6102400000060E40EB
:1006300050180E4000120E40C1054000004B1847F4
:10064000F505400070B50D4E0D4D761BB61006D069
:100650000024013455F8043B9847A642F9D1094ECD
:10066000094D761B00F0E0F8B61006D000240134E6
:1006700055F8043B9847A642F9D170BD34084000B4
:10068000340840003C08400034084000024B13B1DD
:10069000024800F005B8704700000000AD064000B9
:1006A000002301461A46184600F01EB838B50A4C19
:1006B0000A4D641BA4100AD004F18043013B05EBF2
:1006C0008305013C55F804399847002CF9D1BDE861
:1006D000384000F0B3B800BF4C0840004808400064
:1006E000704700BF704700BF2DE9F8432B4D064609
:1006F000286898460F469146FFF7F2FF284B1C6882
:10070000D4F84831002B3DD05A681F2A0DDC02F185
:10071000010C16BB0232C3F804C0286843F82270EB
:10072000FFF7E0FF0020BDE8F8831E4B7BB34FF4DA
:10073000C870AFF30080034648B3D4F848210021C5
:10074000C0E900214FF0010CC4F848010A46C0F886
:100750008811C0F88C11002EDCD003EB820101243B
:10076000C1F88890D3F8880194402043022EC3F842
:100770008801C1F80881CDD1D3F88C110C43C3F89E
:100780008C41C7E704F5A673C4F84831BCE7286874
:10079000FFF7A8FF4FF0FF30C5E700BF2804402057
:1007A0002408400000000000000002401F0000007C
:1007B000010001000100000001000000FF00000036
:1007C0000000000004000000000000000000000025
:1007D0000000000004000000E407400000000000EA
:1007E0005004402000000000000000000004000051
:1007F0006400000001000000000000000004000090
:1008000000020000020000000000000000040000E0
:1008100000020000030000000000000000040000CF
:100820000002000000004020F8B500BFF8BC08BC82
:100830009E4670478D0640008D014000F8B500BF10
:0C084000F8BC08BC9E46704769014000EF
:10084C0000000000EC02402054034020BC03402078
:10085C00000000000000000000000000000000008C
:10086C00000000000000000000000000000000007C
:10087C00000000000000000000000000000000006C
:10088C00000000000000000000000000000000005C
:10089C00000000000000000000000000000000004C
:1008AC00000000000000000000000000000000003C
:1008BC00000000000000000000000000000000002C
:1008CC00000000000000000000000000000000001C
:1008DC00000000000000000000000000000000000C
:1008EC0000000000000000000100000000000000FB
:1008FC000E33CDAB34126DE6ECDE05000B000000C0
:10090C0000000000000000000000000000000000DB
:10091C0000000000000000000000000000000000CB
:10092C0000000000000000000000000000000000BB
:10093C0000000000000000000000000000000000AB
:0C0C6C00000000000000000078044020A0
:0400000500400000B7
:00000001FF
