:020000040040BA
:10000000880A4020F5024000F1024000F102400061
:10001000F1024000F1024000F10240000000000047
:10002000000000000000000000000000F10240009D
:10003000F102400000000000F1024000F102400027
:10004000F1024000F1024000F1024000F1024000E4
:10005000F1024000F1024000F1024000F1024000D4
:10006000F102400000000000F1024000F1024000F7
:10007000F1024000F1024000F1024000F1024000B4
:10008000F1024000F1024000F1024000F1024000A4
:10009000F1024000F1024000F1024000F102400094
:1000A000F1024000F1024000F1024000F102400084
:1000B000F1024000F1024000F1024000F102400074
:1000C000F1024000F1024000F1024000F102400064
:1000D000F1024000F1024000F1024000F102400054
:1000E000F1024000F1024000F1024000F102400044
:1000F000F1024000F1024000F1024000F102400034
:10010000F1024000F1024000F1024000F102400023
:10011000F1024000000000000000000000000000AC
:10012000F1024000F1024000F1024000F102400003
:10013000F1024000F1024000F1024000F1024000F3
:10014000F1024000F1024000F1024000F1024000E3
:10015000F1024000F1024000F1024000F1024000D3
:10016000F1024000F102400010B5054C237833B98C
:10017000044B13B10448AFF300800123237010BD7A
:100180002C044020000000003408400008B5034B58
:100190001BB103490348AFF3008008BD0000000015
:1001A0003004402034084000EFF31083036072B63F
:1001B000BFF35F8F7047BFF35F8F036883F31088CF
:1001C00070470000054B10B51C68054B9847054B60
:1001D00001462046BDE81040184700BF48044020B3
:1001E0000D02400021024000054B10B51C68054B74
:1001F0009847054B01462046BDE81040184700BF10
:100200004804402015024000210240004FF496733C
:1002100058437047014B5843704700BFE0930400B8
:100220000139FDD87047000007B50E4B01A898476B
:100230000D4AD2F8883043F47003C2F88830BFF317
:100240004F8FBFF36F8F094B01A89847084A136877
:1002500023F4706343F4A0631360064B984703B024
:100260005DF804FBA901400000ED00E0B70140008B
:10027000000C0E40790240001A4B1B4A196A21F00B
:1002800002010A431A629A6ED107FCD51A6A42F03B
:100290009B7242F480321A629A6A22F0FF6222F460
:1002A000E0229A62114A9A629A6E9207FCD51A6B02
:1002B00022F070021A639A6E1007FCD51A6B22F4B2
:1002C000407242F480721A639A6E1107FCD51A6B61
:1002D00022F0030242F002021A639A6E1207FCD562
:1002E000704700BF00060E40013E3700013F182056
:1002F000FEE7000008B50F4A0F4B9A4203D0043ABC
:100300000E498B420ED30E4B00210E4A93420ED360
:100310000D4B0E4A23F07F0393600D4B98470D4B16
:100320009847FEE752F8040F43F8040BE9E743F857
:10033000041BEBE734084000000040202C04402060
:100340002C044020840440200000400000ED00E028
:100350008906400065054000054B03EB4020836B98
:1003600003EA010221EA030101634263704700BF0F
:10037000000E0E402DE9F041124C05460E46236852
:10038000834203D04FF47A700F4B98470F4B0422EF
:100390005DB95A6300230E4FDFF8388063606368ED
:1003A000B34204DB2560BDE8F0811A63F2E7A06880
:1003B00080B2B8474FF400210220C0476368013380
:1003C0006360ECE74C044020E9014000000E0E4061
:1003D000C501400059034000F8B54FF400620D46D6
:1003E0000C4B48B95A630C4C00230C4E0C4F636005
:1003F0006368AB4202DBF8BD1A63F4E7A06880B221
:10040000B0474FF000610320B84763680133636071
:10041000EEE700BF00140E404C044020C501400030
:1004200059034000F8B540220D460C4B48B95A63B9
:100430000B4C00230B4E0C4F63606368AB4202DB36
:10044000F8BD1A63F4E7A06880B2B047202100200D
:10045000B847636801336360EFE700BF000E0E40EA
:100460004C044020C501400059034000F8B54FF44A
:1004700000720D460C4B48B95A630C4C00230C4ECD
:100480000C4F63606368AB4202DBF8BD1A63F4E7AC
:10049000A06880B2B0474FF400310020B8476368CD
:1004A00001336360EEE700BF00120E404C044020B1
:1004B000C501400059034000F8B54FF480020D46D5
:1004C0000C4B48B95A630C4C00230C4E0C4F636024
:1004D0006368AB4202DBF8BD1A63F4E7A06880B240
:1004E000B0474FF480110320B8476368013363605D
:1004F000EEE700BF00140E404C044020C501400050
:100500005903400010B4114B00245C6004281AD831
:10051000DFE800F003080C101500490010460C4BF2
:1005200010BC1847490010460A4BF9E7490010462D
:10053000094BF5E749001046084B10BC1847490025
:100540001046074BF9E710BC704700BF4C04402031
:1005500075034000D9034000250440006D044000AD
:10056000B904400070B5154C88B0154B4FF4FA76BD
:1005700098476D4694E80F00103485E80F0094E822
:100580000F0008AC0F4D04E90F000F4CA660E368A4
:10059000E368032BFADCE36808A9E3680020E2685B
:1005A00001EB830301EB820253F8101C52F8202C5C
:1005B000A847E3680133E360EAE700BFEC074000C7
:1005C00081064000050540004C04402008B5274B3B
:1005D0009847274B9A69500502D44FF480621A61FC
:1005E0009A69D10402D44FF480521A619A69D203F5
:1005F00002D44FF480321A611E4A4FF400601E4943
:100600005368A2F5256243F40043C2F8543A042328
:100610005363136113604FF400234B630B610B6052
:10062000164B5863186118604FF0006058631861EA
:1006300018604020506310611060202050631061EA
:1006400010604FF400704863086108604FF4003197
:100650005163116111604FF480025A631A611A608C
:100660004FF480125A631A611A6008BD29024000D3
:1006700000060E4050180E4000120E4000140E40AE
:10068000004B1847CD05400070B50D4E0D4D761B43
:10069000B61006D00024013455F8043B9847A64212
:1006A000F9D1094E094D761B00F0B2F8B61006D00C
:1006B0000024013455F8043B9847A642F9D170BD97
:1006C0001C0840001C084000240840001C08400092
:1006D000024B13B1024800F005B87047000000005B
:1006E000F1064000002301461A46184600F01EB8E5
:1006F00038B50A4C0A4D641BA4100AD004F180439B
:10070000013B05EB8305013C55F804399847002C63
:10071000F9D1BDE8384000F085B800BF340840008A
:1007200030084000704700BF704700BF2DE9F84314
:100730002B4D0646286898460F469146FFF7F2FF74
:10074000284B1C68D4F84831002B3DD05A681F2A2A
:100750000DDC02F1010C16BB0232C3F804C028689C
:1007600043F82270FFF7E0FF0020BDE8F8831E4B3E
:100770007BB34FF4C870AFF30080034648B3D4F89E
:1007800048210021C0E900214FF0010CC4F84801C4
:100790000A46C0F88811C0F88C11002EDCD003EB9B
:1007A00082010124C1F88890D3F888019440204345
:1007B000022EC3F88801C1F80881CDD1D3F88C117D
:1007C0000C43C3F88C41C7E704F5A673C4F848315D
:1007D000BCE72868FFF7A8FF4FF0FF30C5E700BF70
:1007E000280440200C084000000000000100000028
:1007F00001000000010000000100000020030000D3
:10080000200300002003000020030000000040201F
:10081000F8B500BFF8BC08BC9E467047D106400042
:100820008D014000F8B500BFF8BC08BC9E4670477B
:04083000690140001A
:1008340000000000EC02402054034020BC03402090
:1008440000000000000000000000000000000000A4
:100854000000000000000000000000000000000094
:100864000000000000000000000000000000000084
:100874000000000000000000000000000000000074
:100884000000000000000000000000000000000064
:100894000000000000000000000000000000000054
:1008A4000000000000000000000000000000000044
:1008B4000000000000000000000000000000000034
:1008C4000000000000000000000000000000000024
:1008D4000000000000000000010000000000000013
:1008E4000E33CDAB34126DE6ECDE05000B000000D8
:1008F40000000000000000000000000000000000F4
:1009040000000000000000000000000000000000E3
:1009140000000000000000000000000000000000D3
:1009240000000000000000000000000000000000C3
:0C0C5400000000000000000060044020D0
:0400000500400000B7
:00000001FF
