:020000040040BA
:10000000900A4020F5024000F1024000F102400059
:10001000F1024000F1024000F10240000000000047
:10002000000000000000000000000000F10240009D
:10003000F102400000000000F1024000F102400027
:10004000F1024000F1024000F1024000F1024000E4
:10005000F1024000F1024000F1024000F1024000D4
:10006000F102400000000000F1024000F1024000F7
:10007000F1024000F1024000F1024000F1024000B4
:10008000F1024000F1024000F1024000F1024000A4
:10009000F1024000F1024000F1024000F102400094
:1000A000F1024000F1024000F1024000F102400084
:1000B000F1024000F1024000F1024000F102400074
:1000C000F1024000F1024000F1024000F102400064
:1000D000F1024000F1024000F1024000F102400054
:1000E000F1024000F1024000F1024000F102400044
:1000F000F1024000F1024000F1024000F102400034
:10010000F1024000F1024000F1024000F102400023
:10011000F1024000000000000000000000000000AC
:10012000F1024000F1024000F1024000F102400003
:10013000F1024000F1024000F1024000F1024000F3
:10014000F1024000F1024000F1024000F1024000E3
:10015000F1024000F1024000F1024000F1024000D3
:10016000F1024000F102400010B5054C237833B98C
:10017000044B13B10448AFF300800123237010BD7A
:100180002C04402000000000C009400008B5034BCB
:100190001BB103490348AFF3008008BD0000000015
:1001A00030044020C0094000EFF31083036072B6B2
:1001B000BFF35F8F7047BFF35F8F036883F31088CF
:1001C00070470000054B10B51C68054B9847054B60
:1001D00001462046BDE81040184700BF48044020B3
:1001E0000D02400021024000054B10B51C68054B74
:1001F0009847054B01462046BDE81040184700BF10
:100200004804402015024000210240004FF496733C
:1002100058437047014B5843704700BFE0930400B8
:100220000139FDD87047000007B50E4B01A898476B
:100230000D4AD2F8883043F47003C2F88830BFF317
:100240004F8FBFF36F8F094B01A89847084A136877
:1002500023F4706343F4A0631360064B984703B024
:100260005DF804FBA901400000ED00E0B70140008B
:10027000000C0E40790240001A4B1B4A196A21F00B
:1002800002010A431A629A6ED107FCD51A6A42F03B
:100290009B7242F480321A629A6A22F0FF6222F460
:1002A000E0229A62114A9A629A6E9207FCD51A6B02
:1002B00022F070021A639A6E1007FCD51A6B22F4B2
:1002C000407242F480721A639A6E1107FCD51A6B61
:1002D00022F0030242F002021A639A6E1207FCD562
:1002E000704700BF00060E40013E3700013F182056
:1002F000FEE7000008B50F4A0F4B9A4203D0043ABC
:100300000E498B420ED30E4B00210E4A93420ED360
:100310000D4B0E4A23F07F0393600D4B98470D4B16
:100320009847FEE752F8040F43F8040BE9E743F857
:10033000041BEBE7C0094000000040202C044020D3
:100340002C044020900440200000400000ED00E01C
:1003500075074000D5054000054B03EB4020836B3B
:1003600003EA010221EA030101634263704700BF0F
:10037000000E0E402DE9F041124C05460E46236852
:10038000834203D06068104B80B298470F4B042221
:100390005DB95A6300230E4FDFF83880A360A3686D
:1003A000B34204DB2560BDE8F0811A63F2E7E06840
:1003B00080B2B8474FF400210220C047A368013340
:1003C000A360ECE74C044020E9014000000E0E4021
:1003D000C5014000590340002DE9F041134C05468A
:1003E0000E462369834203D06068114B80B2984760
:1003F000104B4FF400625DB95A6300230E4FDFF8D3
:100400003C80A360A368B34204DB2561BDE8F081B2
:100410001A63F2E7E06880B2B8474FF0006103204A
:10042000C047A3680133A360ECE700BF4C04402041
:10043000E901400000140E40C5014000590340008E
:100440002DE9F041124C05460E466369834203D004
:100450006068104B80B298470F4B40225DB95A63D9
:1004600000230E4FDFF83880A360A368B34204DB9B
:100470006561BDE8F0811A63F2E7E06880B2B847D1
:1004800020210020C047A3680133A360EDE700BF2F
:100490004C044020E9014000000E0E40C501400020
:1004A000590340002DE9F041184C07460E46636998
:1004B000834203D06068164B80B29847154A0421E6
:1004C000154B77B951634FF400625A630023DFF88C
:1004D0005080124DA360A368B34207DB6761BDE89B
:1004E000F08111634FF400621A63EFE7E06880B2B5
:1004F000C0474FF400210220A8474FF000610320BD
:10050000A847A3680133A360E5E700BF4C0440207F
:10051000E9014000000E0E4000140E405903400057
:10052000C5014000F8B54FF480020D460C4B48B9A8
:100530005A630C4C00230C4E0C4FA360A368AB42D3
:1005400002DBF8BD1A63F4E7E06880B2B0474FF40D
:1005500080110320B847A3680133A360EEE700BF12
:1005600000140E404C044020C501400059034000D7
:100570004FF4487310B459430024104B9C60042876
:100580001AD8DFE800F003080C10150049001046E7
:100590000B4B10BC1847490010460A4BF9E74900BD
:1005A0001046094BF5E749001046084B10BC1847A8
:1005B00049001046064BF9E710BC70474C04402038
:1005C00075034000D903400041044000A5044000E9
:1005D0002505400070B5324CB0B0324B98476D469F
:1005E0000FCC0FC50FCC0FC50FCC0FC504F11006F3
:1005F00094E80F0085E80F000FCE10AD50340FC502
:100600000FCE0FC50FCE0FC596E80F0085E80F007F
:100610000FCC20AD4FF480060FC50FCC0FC50FCC0B
:100620000FC594E80F0085E80F001F4D4FF47A7056
:100630001E4CA0472E634FF47A70A5F50075A047B5
:10064000C5F834624FF400764FF47A70A0474FF447
:100650007A702E63A0476E634FF47A703226A047FB
:10066000134D144C4FF4FA73E6606360A369A369F9
:100670000F2BF7DCA36930A8A169A26900EB830303
:1006800000EB810100EB820253F8C00C51F8401CD2
:1006900052F8802CA847A3690133A361E7E700BFA4
:1006A000D80840006D07400000140E40E9014000EA
:1006B000710540004C04402008B5274B9847274B54
:1006C0009A69500502D44FF480621A619A69D10484
:1006D00002D44FF480521A619A69D20302D44FF4C3
:1006E00080321A611E4A4FF400601E495368A2F519
:1006F000256243F40043C2F8543A04235363136160
:1007000013604FF400234B630B610B60164B58636F
:10071000186118604FF0006058631861186040203D
:1007200050631061106020205063106110604FF41E
:1007300000704863086108604FF400315163116133
:1007400011604FF480025A631A611A604FF48012EC
:100750005A631A611A6008BD2902400000060E4063
:1007600050180E4000120E4000140E40004B184767
:10077000B906400070B50D4E0D4D761BB61006D073
:100780000024013455F8043B9847A642F9D1094E9C
:10079000094D761B00F002F9B61006D00024013492
:1007A00055F8043B9847A642F9D170BDA80940000E
:1007B000A8094000B0094000A8094000024B13B14D
:1007C000024800F005B8704700000000DD07400057
:1007D000002301461A46184600F01EB838B50A4CE8
:1007E0000A4D641BA4100AD004F18043013B05EBC1
:1007F0008305013C55F804399847002CF9D1BDE830
:10080000384000F0D5B800BFC0094000BC09400026
:10081000704700BF704700BF2DE9F8432B4D0646D7
:10082000286898460F469146FFF7F2FF284B1C6850
:10083000D4F84831002B3DD05A681F2A0DDC02F154
:10084000010C16BB0232C3F804C0286843F82270BA
:10085000FFF7E0FF0020BDE8F8831E4B7BB34FF4A9
:10086000C870AFF30080034648B3D4F84821002194
:10087000C0E900214FF0010CC4F848010A46C0F855
:100880008811C0F88C11002EDCD003EB820101240A
:10089000C1F88890D3F8880194402043022EC3F811
:1008A0008801C1F80881CDD1D3F88C110C43C3F86D
:1008B0008C41C7E704F5A673C4F84831BCE7286843
:1008C000FFF7A8FF4FF0FF30C5E700BF2804402026
:1008D0009809400000000000000000000000000037
:1008E0000000000000000000010000000100000006
:1008F00001000000010000000200000002000000F2
:1009000002000000020000000300000003000000DD
:1009100003000000030000000100000000000000D0
:1009200001000000000000000100000000000000C5
:1009300001000000000000000100000000000000B5
:1009400001000000000000000100000000000000A5
:1009500001000000000000000A0000000A00000082
:100960000A0000000A0000000A0000000A0000005F
:100970000A0000000A0000000A0000000A0000004F
:100980000A0000000A0000000A0000000A0000003F
:100990000A0000000A00000000004020F8B500BF77
:1009A000F8BC08BC9E467047BD0740008D01400062
:1009B000F8B500BFF8BC08BC9E467047690140000E
:1009C00000000000EC02402054034020BC03402003
:1009D0000000000000000000000000000000000017
:1009E0000000000000000000000000000000000007
:1009F00000000000000000000000000000000000F7
:100A000000000000000000000000000000000000E6
:100A100000000000000000000000000000000000D6
:100A200000000000000000000000000000000000C6
:100A300000000000000000000000000000000000B6
:100A400000000000000000000000000000000000A6
:100A50000000000000000000000000000000000096
:100A60000000000000000000010000000000000085
:100A70000E33CDAB34126DE6ECDE05000B0000004A
:100A80000000000000000000000000000000000066
:100A90000000000000000000000000000000000056
:100AA0000000000000000000000000000000000046
:100AB0000000000000000000000000000000000036
:0C0DE00000000000000000006C04402037
:0400000500400000B7
:00000001FF
